:10100000804D01205DBE0000E3C9050049BE00001F
:1010100049BE000049BE000049BE000000000000BB
:1010200000000000000000000000000095C000006B
:1010300049BE00000000000029C0000049BE0000B9
:10104000A9C30000EF110600A9C30000A9C3000056
:10105000A9C30000A9C30000A9C30000A9C30000E0
:10106000BF110600A9C30000A9C30000D9110600E2
:10107000A9C30000A9C30000A9C30000A9C30000C0
:10108000A9C30000A9C30000A9C30000A9C30000B0
:10109000A9C30000A9C30000A9C30000A9C30000A0
:1010A000A9C30000A9C30000A9C30000A9C3000090
:1010B000A9C30000A9C30000A9C30000A9C3000080
:1010C000A9C30000A9C30000A9C30000A9C3000070
:1010D000A9C30000A9C30000A9C30000A9C3000060
:1010E000A9C30000A9C30000A9C30000A9C3000050
:1010F000A9C30000A9C30000A9C30000A9C3000040
:101100002DE9F14F03F11C0402EB840C4FEA930B21
:101110008A68CB680868496800F046F93CE9F00045
:101120006040694072407B400BF1060E4EE083EA5E
:10113000134480EA134582EA134746BA96EA3444D8
:10114000604000F00F1684EA063420F00F1684EA9F
:10115000161054BA94EA0106724002F00F1486EA9F
:10116000043622F00F1486EA14124CBA6540694026
:1011700001F00F1485EA043521F00F1485EA1411EB
:101180005CBA67407B4003F00F1487EA043723F012
:101190000F1487EA141344BA44404DBA4D4056BA6E
:1011A00056405FBA5F4087EA174886EA174B84EAE1
:1011B00017464FEA38488BEA1B4485EA1B4788EA02
:1011C0001B4580EA3440694072407B4000F0703437
:1011D00000F0803500F00F3040EA440040EAD500CE
:1011E00080EA900404F0332480EA8400604001F037
:1011F000703401F0803501F00F3141EA440141EAD9
:10120000D50181EA910404F0332481EA840161402C
:1012100002F0703402F0803502F00F3242EA4402EC
:1012200042EAD50282EA920404F0332482EA84027C
:10123000624003F0703403F0803503F00F3343EA6B
:10124000440343EAD50383EA930404F0332483EA96
:1012500084036340C943DB4381EA000483EA044614
:1012600086EA020183EA014382EA334583EA1443B2
:101270005C4084EA00077FEA040A8AEA024A8AEAB2
:10128000010B87EA11488AEA374A80EA060181EAB7
:101290001A418AEA030A04EA0A00454088EA040778
:1012A00007EA0B0041408AEA0B0608EA060084EAD6
:1012B00034428AEA3A4602EA060358404540414031
:1012C00087EA37438BEA3B4003EA000985EA0905D0
:1012D00082EA0309464006EA0906714085EA0100F0
:1012E00005EA3546464006EA314181EA304181EA65
:1012F000364606EA304686EA354634400F4086EAEE
:10130000010508EA050886EA3640024088EA020834
:1013100081EA314213405C4080EA020309EA030992
:1013200087EA0907674088EA040806EA0A0601EA2C
:101330000B018AEA0B0425408AEA3A4420404540E2
:101340008BEA3B4B02EA0B02564084EA0B04234033
:1013500059406E40694087EA364080EA384080EA6A
:10136000060380EA104481EA134585EA344585EA9C
:1013700017427D4082EA354180EA05403CE9F000B1
:101380006040694072407B40BEF1010E3FF6CFAE37
:1013900020BC00F05FF828606960AA60EB60BDE8DF
:1013A000F08F00BF00F000BA80EA101404F0F014CF
:1013B00080EA0410604081EA111404F0F01481EA1C
:1013C0000411614082EA121404F0F01482EA04125B
:1013D000624083EA131404F0F01483EA04136340B8
:1013E00080EA102404F47F4480EA0420604081EA0B
:1013F000112404F47F4481EA0421614082EA12242A
:1014000004F47F4482EA0422624083EA132404F451
:101410007F4483EA0423634081EA500404F0553496
:1014200080EA4400614083EA520404F0553482EAC1
:101430004402634082EA900404F0333480EA84007A
:10144000624083EA910404F0333481EA840163400A
:10145000704700BF82EA900404F0333480EA8400CD
:10146000624083EA910404F0333481EA84016340EA
:1014700081EA500404F0553480EA4400614083EA74
:10148000520404F0553482EA4402634080EA102496
:1014900004F47F4480EA0420604081EA112404F4CB
:1014A0007F4481EA0421614082EA122404F47F44EB
:1014B00082EA0422624083EA132404F47F4483EA2C
:1014C0000423634080EA101404F0F01480EA04104E
:1014D000604081EA111404F0F01481EA04116140C3
:1014E00082EA121404F0F01482EA0412624083EAE1
:1014F000131404F0F01483EA04136340704700BF30
:101500002DE9F14F94464FEA930B8A68CB6808683F
:101510004968FFF749FF0BF1060E33E083EA1344F5
:1015200080EA134582EA134746BA96EA344460409B
:1015300000F00F1684EA063420F00F1684EA161025
:1015400054BA94EA0106724002F00F1486EA043697
:1015500022F00F1486EA14124CBA6540694001F07B
:101560000F1485EA043521F00F1485EA14115CBAD2
:1015700067407B4003F00F1487EA043723F00F1411
:1015800087EA1413BCE8F0006040694072407B4079
:1015900000F0E03400F0103500F00F3040EA540065
:1015A00040EAC50080EA900404F0332480EA840015
:1015B000604001F0E03401F0103501F00F3141EAF4
:1015C000540141EAC50181EA910404F0332481EA1F
:1015D0008401614002F0E03402F0103502F00F3275
:1015E00042EA540242EAC50282EA920404F0332439
:1015F00082EA8402624003F0E03403F0103503F025
:101600000F3343EA540343EAC50383EA930404F027
:10161000332483EA8403634081EA324787EA13452F
:1016200081EA354690EA060484EA034B82EA1B42CB
:1016300080EA044484EA054483EA144A85EA1444AF
:101640008BEA044B84EA374481EA0B4181EA164174
:1016500004EA0A00454082EA04082BEA08004140F7
:101660008AEA0B0602EA060084EA34438AEA3A462A
:1016700003EA060778404540414088EA38478BEA4C
:101680003B4007EA000985EA090583EA0709464065
:1016900006EA0906714085EA010005EA354646403A
:1016A00006EA314181EA304181EA364606EA3046AF
:1016B00086EA3546344008EA010886EA01052A40F0
:1016C00086EA364003405A4081EA31431F407C405D
:1016D00080EA030709EA070988EA0908544088EA0A
:1016E000020806EA0A0601EA0B018AEA0B02154023
:1016F0008AEA3A42104045408BEA3B4003405E4054
:101700004240174079404D404E40E443F64386EA5C
:1017100018435D4085EA054083EA134386EA0341A6
:1017200083EA384284EA114383EA04435FEA33439D
:10173000BEF1010E3FF6F2AE1ED4BCE8F0006040F0
:10174000694072407B4020BCFFF784FE28606960DE
:10175000AA60EB60BDE8F08F2DE9E0414FF2F002A6
:1017600080EA1031114080EA013048404108820887
:10177000C3084FF0000E4FE700F0113001F01131B7
:1017800002F0113203F0113340EA410040EA8200D6
:1017900040EAC3004FF2F00280EA1031114080EAC3
:1017A00001304840BDE8E0812DE9F04F02F11C0511
:1017B0000646074600EB850851F8040B043A46F844
:1017C000040BF9D14FF0010CFFF7C6FF5FEA3020A0
:1017D00080EA0C001ECF41404A4053405C401EC688
:1017E0002000464517D04FEA4C0C1CF4807F18BFF0
:1017F000ACF1E50C2C2DE7D03C2D06D1FFF7ACFF6A
:1018000006CF41404A4006C6100006CF41404A403C
:1018100006C61000D8E736E90F00FFF7C5FD043D06
:1018200086E80F00F7D1BDE8F08F00BF30B44FF06D
:10183000000310F8014B11F8015B013A84EA05043A
:1018400043EA0403F5D1A3F101034FEAD37030BC9E
:10185000704700BF4FF0000310F8012B013943EA35
:101860000203F9D1A3F101034FEAD370704700BF1F
:1018700030B411F8014B12F8015B6C4000F8014BD9
:10188000013BF6D130BC7047014B1B685B681847C1
:1018900000000020014B1B689B68184700000020D7
:1018A000014B1B681B69184700000020014B1B6897
:1018B0005B69184700000020014B1B689B691847B3
:1018C00000000020014B1B68DB6918470000002066
:1018D000014B1B681B6A184700000020014B1B6866
:1018E000DB6A184700000020014B1B685B6B184740
:1018F00000000020014B1B681B6C184700000020F3
:1019000010B4034C2468E468A4465DF8044B6047B7
:1019100000000020014B1878704700BF58100020CD
:10192000042810B511D883B104280CBF1024282432
:10193000A1420AD2064C54F8200018B141568A42FE
:10194000A8BF0A461A70002010BD6FF01500FBE713
:10195000800B002030B50246114890F91C309342AC
:101960001ADD90F92430934218DAD31A856A0D4CA7
:10197000E85C235693420ED00E3400290CBF034678
:10198000431CA542D8B206D129B1013AD2B2012AEC
:1019900001D80130C0B230BD0D20FCE70020FAE7CD
:1019A000800B0020988D060008B5054B93F91C307C
:1019B000984203DAFFF7CEFF024B1B56184608BDCC
:1019C000800B0020988D060010B51C4C94F82C302C
:1019D00073B9012384F82C3002F0AEFE48B1184BE5
:1019E000A362D823236284F824300823A3612377D9
:1019F00010BD02F0B7FE0028F1D102F0BDFE0028B4
:101A0000EDD102F07BFE38B10E4BA362D8232362E6
:101A100084F824300423E9E702F07AFE0028F3D1A9
:101A200002F080FE0028EFD102F090FE0028EBD1FA
:101A30004FF4DF71742002F071FD00BF800B0020B5
:101A4000D38D0600A68D06004FF08042012353601F
:101A50000023C2F80031014A13707047AD0B00201B
:101A6000014B01221A707047AD0B00204FF08043EC
:101A7000D3F8003123B9034B187800F00100704708
:101A80000120FAE7AD0B002070B50A4D012604468F
:101A90002E70FFF7EBFF30B94FF080436E706C6033
:101AA000C3F8046370BD002CFCD0A04700236B601A
:101AB000F8E700BFB00B0020024B00221A705A70EA
:101AC0005A607047B00B002010B5034C208100F025
:101AD000CDFC608110BD00BFB00B0020014B5889C8
:101AE000704700BFB00B002010B5EFF3108472B642
:101AF000064A937B0133DBB29373937B012B01D1B5
:101B000003F029FA04B962B610BD00BFB00B002083
:101B100038B5FFF7E9FFFFF7A9FF094C4FF0804503
:101B200040B103F043FA01232B610423E373002344
:101B3000237438BD0323E3730123C5F80433F6E7A8
:101B4000B00B002010B5EFF3108472B6094A937BF6
:101B500023B94FF4F8716D2002F0E0FC937B013B58
:101B6000DBB29373937B0BB9FFF76EFF04B962B6D8
:101B700010BD00BFB00B002073B51B4D6B7C63B96B
:101B8000E86900F0030003F000FA30B1EFF31083CE
:101B900072B6EA7B1AB103B962B602B070BD012217
:101BA000EA7303B962B64FF080430822C3F80823F2
:101BB0004FF42073ADF80630BDF80640A4B2631EA2
:101BC0009BB2ADF80630002CF6D14FF080460748A6
:101BD000C6F80C4103F071FB85F82140FFF798FF30
:101BE0000823C6F80433D8E7B00B0020D00B002040
:101BF0002DE9F041384C94F82230002B69D04FF099
:101C00008043D3F80071D3F8046157B10122C3F8BF
:101C1000082363782BB16368002565700BB1984782
:101C200065604EB14FF080430022C3F804210222C8
:101C3000C3F80823FFF7A0FF4FF080462748D6F8E7
:101C40000C8194F82150EDB203F03BFB20B14FF42E
:101C500023716D2002F062FC47B1E37B032B05D1B9
:101C60000423E37303F0A2F901233361B8F1000FF9
:101C700016D04FF080430022C3F80C21E37B042BE5
:101C800002D040F2AA21E4E702F080FDC0B14FF09B
:101C900080430022C3F8342C0223E373FFF752FF82
:101CA0004DB1002384F82130E37B022B01D1FFF7F3
:101CB0002FFFFFF747FFBDE8F041084803F010BBD6
:101CC00002F044FD0028E2D102F056FD0028DED1EA
:101CD000E2E7BDE8F08100BFB00B0020D00B002090
:101CE00010B5044CE06900F0030003F04EF9002841
:101CF000F8D010BDB00B0020F8B5054650B1027801
:101D0000042A07D8437842B9013B1F2B02D88378B5
:101D1000212B07D96FF0150077E0002BFAD18378DB
:101D2000002BF7D1814B0127C3F88070BFF34F8F91
:101D3000BFF36F8F4FF08046C3F880717C4C4FF03B
:101D4000FF33C6F808330023C6F80031C6F8043163
:101D5000C6F80C31A373AB88A38103F001F908B175
:101D60002770A773D6F80C24D6F80C34D20303D509
:101D7000DF0701D5FFF774FE4FF4AF60FFF7A4FE55
:101D80002B78A97863740022E261A1742274042B79
:101D90004ED8DFE803F005033B494B000123E36124
:101DA00003F0E5F800284ED003F0E8F8E36903F00B
:101DB0000303984247D1AB79002B3ED1FFF790FF48
:101DC000A37C6BB12B785BB9FFF750FE054602F0A0
:101DD000EBFB6FF00043002D00F0A580C4E9050384
:101DE0004FF08043D3F80C24D3F80C34D20303D53E
:101DF000DB0701D5FFF734FE4C4A01230020E073D6
:101E000084F82230C2F880311360F8BDFFF76CFE11
:101E10004FF08043D3F80C14D3F80C24CE03F9D53B
:101E2000D007F7D50223BAE7424BB8E7424BB6E7F3
:101E30004FF47F716D2002F071FB4FF0804302225E
:101E4000C3F80423BCE74FF080430122DA6000228C
:101E5000C3F80421E269C3F8182502F04FFC10B35F
:101E60004FF080534FF08042D3F84432C3F34233F3
:101E7000C2F83C3502F042FC10B34FF0804301221F
:101E8000C3F84C254FF0804301229A600222C3F828
:101E90000423AA79002A93D1D3F8042391071CD4F0
:101EA00040F2B331C6E702F033FC0028D8D102F08B
:101EB00039FC0028D4D102F049FC0028D0D1D9E760
:101EC00002F026FC0028D8D102F02CFC0028D4D146
:101ED00002F03CFC0028D0D1D4E7184A16691169F9
:101EE00041F010011161D3F8043106F010060BB96E
:101EF00003F003FA4FF08047D7F8043183B1FFF7BE
:101F0000EFFE26B90D4A136923F0100313614FF059
:101F100080430222C3F808230022C3F804214FE7BC
:101F200003F0E9F9E8E7C4E9053059E700E100E02A
:101F3000B00B0020010002000100030000ED00E0F2
:101F4000074B07B51A783AB9012201901A70FFF7CA
:101F5000CBFD0198FFF798FD002003B05DF804FB6E
:101F6000D30B002010B5054C23782BB1FFF7A4FD4F
:101F700000232370FFF7E6FD002010BDD30B0020E7
:101F8000034610B3007888B91A79012A1ED85A7905
:101F9000012A1BD89A680E49643A8A4216D8D86832
:101FA0000C4B98422CBF00200120704701280CD117
:101FB0001A79012A09D85A79012A06D8DA68044917
:101FC000643A8A4201D89868EAE70020704700BF67
:101FD0003C8601000040420F10B5054C236813B148
:101FE000984700232360BDE8104001F05FBB00BFAD
:101FF000D40B002038B5044620B94FF4D5716A20BF
:1020000002F08CFA90F82850072900F2EC80DFE803
:1020100001F004464676808AA39190F82630033B6F
:10202000012B02D940F2B511E9E7052390F82410FD
:1020300080F82630002380F8293061BB714B0122E3
:10204000C3F84015C3F84011C3F84415C3F8441150
:10205000C3F84815C3F84811C3F84C15C3F84C1120
:10206000DA6002F0E1FF2378012B0FD101F0ACFC24
:10207000C4E90601236A0021284698470146204604
:1020800002F0E9FF022840F0B18038BDD4E9042312
:10209000C4E90623EEE7BDE83840FFF79DBF90F89E
:1020A0002630DA1E012A02D94FF4EB71A7E790F827
:1020B00024202AB121462846BDE8384002F09ABFC4
:1020C000042B0CBF02230123012980F82630036A68
:1020D0000AD10521284698470028D6D00378002B3E
:1020E000D3D040F2EB118AE7062128469847002812
:1020F000CBD00378002BC8D04FF4F8717FE790F86D
:102100002630052B02D040F2F71178E7036A02214E
:10211000B2E790F82630052B02D040F2FD116EE7B1
:10212000036A0121A8E790F82630052BB3D040F2CE
:10213000032164E790F82630052B02D04FF402719A
:102140005DE7036A0A21284698470146204602F0C7
:1021500082FF40F20B2152E790F82630052B07D082
:1021600090F825200AB1032B02D040F20F2146E758
:1021700094F82420002A9DD194F8293093B10223A9
:1021800084F8263084F82920236A082128469847B5
:1021900000283FF47AAF0378002B3FF476AF40F28B
:1021A0001B212CE794F8252062B194F8270084F8CD
:1021B0002530214601F016FC00287FF466AF4FF46D
:1021C00008711CE7022384F826300721236A284679
:1021D000984700283FF459AF0378002B3FF455AFE0
:1021E00040F227210BE74FF40B7108E720B10128DB
:1021F00005D1236A04213FE7236A03213CE740F22B
:102200003D21FCE6008000402DE9F8438846074662
:1022100080B300F037F84FF0000905465FFA89F601
:10222000AE420AD2304600F033F890F8264009F169
:102230000109002CF2D1FF2E03D16FF00B00BDE895
:10224000F883304600F024F80546848480F8264060
:1022500080F8286001460A4801F070FB202885F8C4
:1022600027000AD001232F6285F82630204688F8FF
:102270000060E4E76FF01500E1E76FF02200DEE7B1
:10228000F51F0000014B1879704700BFD80B0020E4
:10229000054B1A79824283BF1B6800EB400003EBB9
:1022A00000100020704700BFD80B002010B510F0C0
:1022B00003040BD1074A1171106030B101EB4101E9
:1022C0000A01214602F0B2FA204610BD6FF00D005F
:1022D000FBE700BFD80B002043F60952C0F3080308
:1022E00002FB03F3400A03F5807302FB00F000EBEE
:1022F0005320704743F6095CC0F3080210B50CFB8D
:1023000002F2C0F34E24030E43EA01230CFB04F057
:10231000090E02F580724FEA411C00EB52205A016F
:10232000B2EB030E4CEAD36C6CEB01044FEA841C55
:102330004FEA8E12B2EB0E024CEA9E6C6CEB040C70
:102340004FEACC0C4CEA527CD200D31841EB0C0182
:10235000DA03C903801841EA534141F1000110BD7D
:10236000430B48F2376C0CFB03F34FEA134C00B5F8
:10237000104B43F6095E0EFB1C0000FB03F35B0DE4
:102380000EFB03FE03EB4C230EF5745C0CF1080C02
:10239000B0EB5C2F08D80EF5807EA0EB5E20C0B2BB
:1023A0000B6010705DF804FB013300200B601070AF
:1023B0005DF804FB6F0C0100F8B5274DA94246D823
:1023C000264E274F450F45EAC105A6FB0514C0F36D
:1023D0004F31A40B01EB054107FB1411A6FB015182
:1023E000890B41EA04411F4C04FB110448F2376C8D
:1023F000600B0CFB00F04FEA104C43F6095E1A48E4
:102400000EFB1C4505FB00F0400D0EFB00FE00EB33
:102410004C200EF5745C0CF1080CB5EB5C2F12D857
:102420000EF5807EA5EB5E2E5FFA8EFE069D85F88A
:1024300000E00D0628184FEA112141F10001186053
:1024400059601460F8BD01304FF0000EEEE79621A0
:102450009B2002F063F800BFFF7F841E83DE1B43D6
:10246000000024F40080841E6F0C0100420B48F22F
:10247000376303FB02F2120C43F6095C074B0CFBBB
:10248000120101FB0333013B5B0D0CFB03FC50020B
:10249000B1EB5C2F88BF0130184470476F0C01000E
:1024A00010B5094A92F80033202B03D13E210220B7
:1024B00002F034F818214B43D018BDE81040D3582F
:1024C00040680321184700BFE00B00200C4B0D496A
:1024D0001B78012B14BF4FF4E0224FF4C022C1F847
:1024E000482318BF0023C1F80823074A99000A446B
:1024F0000021012B42F8041B00D170470123F8E7AB
:10250000180F002000B0004040B1004070B5EFF35C
:10251000108472B6094A0A4B0025D2F80415D2F885
:1025200004612EB1596801315960C2F80451F4E7D1
:102530005B6804B962B6C0E9001370BD00B000402A
:10254000180F0020094BD3F80435C01A20F07F4340
:1025500023F001033BB120F07F40B0F5000F8CBFAA
:102560000220002070470120704700BF00B00040EB
:1025700008B5124BD3F8042522F00302C3F8042552
:10258000D3F8082542F00302C3F80825102292FA76
:10259000A2F2B2FA82F2092A04DD094840F291312E
:1025A00001F0B2FFC3F810250122DA60054B4FF4A9
:1025B0008072C3F880211A6008BD00BF008000400F
:1025C000AAF8060000E100E0114B4FF40062C3F8E6
:1025D0008020BFF34F8FBFF36F8FC3F880210D4B67
:1025E00001225A609A60D3F80425002AFBD10A49D7
:1025F000C3F808134FF4E021C3F84813C3F840218F
:10260000C3F84421C3F84821C3F80421704700BF30
:1026100000E100E000B00040020007000D4B4FF465
:102620008072C3F88020BFF34F8FBFF36F8FC3F862
:102630008021094B01214FF0FF325960C3F8082374
:102640000022C3F84025C3F840211961034B1A72D8
:10265000704700BF00E100E000800040180F00203C
:102660002448FF2310B54FF0FF32002443724FF08F
:10267000FF33C0E9042304704460FFF7CFFFFFF786
:10268000A3FF1D4A1D4BC2F800424FF400611960C0
:1026900080691B4930B901230B60194B0222C3F832
:1026A000042310BD174B184CC3F8A845C3F8AC055C
:1026B000C3F85C194FF40021C3F804150521C2F8D2
:1026C000401501211160D2F840110029FBD04FF4D0
:1026D0000021C3F8081501215160D1600021C2F822
:1026E0004011C2F84015C3F8A815C3F8AC15C3F8DB
:1026F000AC15D2E7180F00200080004000E100E098
:1027000000B0004000F0014040810040014BD3E99F
:1027100004017047180F0020014BD3F804057047DF
:1027200000B0004013B56846FFF7F0FEDDE9000495
:10273000FFF7D2FD024B0021E4FB030102B010BD04
:102740000080841EB1F1FF3F08BFB0F1FF3F2DE9CB
:10275000F041404C05460E4638D13F4DD5F800318A
:102760007BB33E4E3E4BC6F808354FF00008FFF7EE
:10277000ADFE84F80980FFF751FFFFF7F9FE394BF2
:10278000C5F80081384FC6F8A8354FF40023C6F8C5
:10279000AC75C6F8043502F082FDD5F800312BB1D6
:1027A0000123C5F800817B60FB60F4E7013041F153
:1027B00000010223C4E904012370FF236370BDE814
:1027C000F08102F06CFDC51C41F10006D4E90473F0
:1027D000B34208BFAF42F2D0204B214AC3F80825CC
:1027E000FFF774FE1C4A4FF4803125F07F48002328
:1027F000C2F808134046C2F84813C2F84031FFF748
:10280000A1FE20B14FF43F716C2001F087FEC2F8A9
:102810004085C2F844132378012B06D127F07F4767
:102820003846FFF78FFE0128FAD000236372FFF7C6
:10283000F5FEFFF79DFE094A01234FF0004123708A
:10284000C2F8041504226270034AC4E90456C2F8AF
:102850004833B4E7180F002000B0004000F00140FA
:102860000000088000B100400080004037B540B152
:10287000041FE4B2022C13D940F295316C2001F010
:102880004DFE214B4FF48032C3F80823C3F84005B6
:10289000C3F84001D3F840310093009B03B030BD32
:1028A0001A4D2B7893B16A7882420FD1184A194990
:1028B000C2F80815012B01D1FFF7B0FE00232B70E1
:1028C0004FF0FF324FF0FF33C5E90423124A4FF4B3
:1028D0008033A340C2F80833C2F8483304F5A87324
:1028E00052F82300FFF72EFE012818BF0B4B22B22F
:1028F0004FEA84041CBF00211951084B53F82230C1
:102900000193019BCAE700BF00800040180F002020
:1029100000F001400000088000B0004040B10040DD
:1029200070B52C4B30B1041FE4B2022C2AD94FF4FD
:1029300054710BE0D3E90401B1F1FF3F08BFB0F1DE
:10294000FF3F06D11B7A23B94FF44A716C2001F086
:10295000E5FD12B94FF44B71F8E71F4B4FF480318E
:102960000120C3F80413C3F840255864D3F8441574
:1029700000248A42C3F8444503D82046FFF776FF77
:10298000204670BD197829B15B78834202D14FF49B
:102990005371DBE7114B124E22F07F41A20013442A
:1029A0004FF48035A5400022C6F808530846C6F803
:1029B00048531A60FFF7C6FD48B904F5A874012012
:1029C00046F82410C6F80453C6F84453D9E7104615
:1029D000D7E700BF180F00200080004040B1004042
:1029E00000B0004008B5FFF771FD054B4FF0FF3216
:1029F000C3F808230022C3F84025C3F8402108BDCE
:102A00000080004008B50122084B10B1C3F84423F0
:102A100008BDC3F84823FFF701FE054B4FF0FF3117
:102A200018704FF0FF30C3E90401F1E700B0004037
:102A3000180F0020F8B5164D164E00244FF48037BD
:102A4000D5F8043307FA04F21A4212D056F82430AB
:102A50007BB1002346F8243004F5A87355F8230011
:102A6000FFF770FD28B1201DC5F80823C0B201F0A2
:102A70001BFA0134032CE3D1054BD3F8042132B106
:102A80000022C3F80421044A536801335360F8BD9F
:102A900000B0004040B10040180F002010B51C4CA1
:102AA000637AFF2B2DD0237883B10122022B22726F
:102AB00021D1184B4FF40022C3F8082500232370BE
:102AC0004FF0FF324FF0FF33C4E90423124BD3F829
:102AD0000423D2031BD5D3F84021C2B14FF4803276
:102AE0000020C3F80823C3F84001FF236372BDE848
:102AF000104001F0D9B9022360782370FFF7B6FEC9
:102B0000E4E7054BD3F804330BB10720EFE710BD22
:102B1000180F002000F00140008000402DE9F04F28
:102B200093B01C460492CDE90201FFF7EFFD182394
:102B300001910646B849082004EB440213FB040443
:102B4000631801EBC202083265581F7BD3F804807A
:102B500093F80D9005970FCA0CAC25F07F4A84E8D6
:102B60000F005046FFF7B8FBAC4B7C1C9842044466
:102B700000F288819C4200F39380002C55DBFEF725
:102B800075FFB9F1010F834608D0A54FD7E902239D
:102B9000B3F1FF3F08BFB2F1FF3F4BD002F01DFA87
:102BA000019B0690B3F1FF3F08BFB6F1FF3F03D092
:102BB000B54278EB030378D2029B0322EB1A9342CF
:102BC00069DBBBF1000F00F0E88000230793029B54
:102BD000B5EB030B039B68EB030702F0FEF909302A
:102BE000C217834577EB020380F0DB80049B012B47
:102BF00000F0E180079B002B5AD1019BB3F1FF3F0E
:102C000008BFB6F1FF3F53D0721B63EB0803042AE1
:102C100073F1000180F22881012A73F100033ADA8E
:102C2000DDF81CB026F07F4A52E004F1F45404F5BC
:102C30009024A4E70028B1D102F0CFF9019B0690BF
:102C4000B3F1FF3F08BFB6F1FF3F00F0A380B542EC
:102C500078EB0303C0F09E803B7C002B069B14BFE7
:102C600000221A463346EB1A9A4214DC01230793DA
:102C7000D7E90232B2F1FF3F08BFB3F1FF3FA6D060
:102C80000699EB1A68EB02028B4272F100039ED2A6
:102C9000B9F1010F9BD00024204613B0BDE8F08F9E
:102CA00004F1614404F5F70469E73346002285E73F
:102CB00028464146FFF746FD4FF0000BB8F1FF3FB5
:102CC00008BFB5F1FF3F00F0E2802E46CDF804804A
:102CD0005046FFF701FB534B221A9A420DD3001BBB
:102CE00098427CD34D4B9A4200F2B380984240F216
:102CF000D880C0F1614202F5F702D3170020FFF738
:102D00000FFE04460028C6D0454FB9F1010FD7E9A0
:102D1000022366D0BBF1000F40F08880B3F1FF3F83
:102D200008BFB2F1FF3F00F0A6800120FFF76AFE66
:102D30003B7C002B40F092806A1E68F10003062065
:102D4000FFF7EEFD002842D0B9694FF08042002322
:102D50000B60C2F80835059B8DF83C3000238DF8D8
:102D6000403008934FF0FF324FF0FF33CDE90C585D
:102D7000CDE90A238DF83D9008AE0FCE2A4D0FC540
:102D80000FCE0FC596E8030085E80300204613B078
:102D9000BDE8F08F029BC21C65E7214FCDF81CB047
:102DA00066E7B9F1010B2846414618BF4FF0010B09
:102DB000FFF7C8FC82E7019BB3F1FF3F08BFB6F104
:102DC000FF3F73D026F07F4A4FF0000B80E7BA69CF
:102DD0004FF080410123C1F808351360BBE7424240
:102DE0008BE7B3F1FF3F08BFB2F1FF3F24D1BBF146
:102DF000000F9DD0069BF21A019B4FF0050063F176
:102E00000003FFF78DFD002846D03B7C002B93D1BB
:102E100001233B7490E700BFE00B0020FF7F841E7E
:102E2000380F00200040420FE80E0020B3F1FF3FB2
:102E300008BFB2F1FF3FDDD002F0CDF84FF0FF3216
:102E40004FF0FF33C7E90223BBF1000F3FF470AF2F
:102E5000D0E702F1F45202F590224EE70520FFF789
:102E600005FD00233B7467E728464146DDF81CB0AA
:102E7000FFF768FC22E702F0ACF802F010FAC7E9AD
:102E8000020152E740F20F41702001F047FB40F28F
:102E90001B71702001F042FB40F22121702001F0F3
:102EA0003DFB40F2D471702001F038FB40F27F61AD
:102EB000702001F033FB00BF2DE9F04F8D4F7C7C7B
:102EC00004EB44033B4483B05D78202D48D08A4B0B
:102ED000E6B26400002B00F08980884BDFF8249272
:102EE000002B5FD005EB461207EB420A4FEA46186B
:102EF0009AF81C30013BDBB2052B34D8804A12F81B
:102F000003B0BBF1080F2ED0AFF30080EFF31083B6
:102F100072B634443C449AF81D206270A278AA42EA
:102F200004BF2022A27013B9AFF3008062B6A84498
:102F300005EB450509EBC50207EB4808506859F851
:102F400035300122594688F81C2098477C7C04EBD8
:102F500044033B44E6B25D78202D4FEA4404C1D1DE
:102F600003B0BDE8F08F40F24A61702001F0D6FA5C
:102F700062B6A84405EB450509EBC50207EB480816
:102F8000506859F835300122594688F81C20984776
:102F90007C7C04EB44033B44E6B25D78202D4FEA91
:102FA0004404DDD005EB461207EB420A4FEA46180F
:102FB0009AF81C30013BDBB2052BD4D8504A12F8EA
:102FC00003B0BBF1080FCED0AFF30080EFF3108356
:102FD00072B634443C449AF81D206270A27895423F
:102FE00004BF2022A270002BC3D1C1E7434BDFF8FE
:102FF00010B1DFF810A14FF02009002B4FD005EBE6
:10300000461207EB42024FEA4618137F013BDBB240
:10301000052BA8D81BF803100829A4D0EFF31083C0
:1030200072B634443C44527F6270A278954208BF25
:1030300084F80290002B52D0A84407EB480805EB17
:1030400045050AEBC5025AF835305068012288F868
:103050001C2098477C7C04EB44033B44E6B25D783B
:10306000202D4FEA4404CAD17AE762B6A84405EBA2
:1030700045050AEBC50207EB480850685AF8353099
:10308000012288F81C2098477C7C04EB44033B44D5
:10309000E6B25D78202D4FEA44043FF461AF05EBC2
:1030A000461207EB42024FEA4618137F013BDBB2A0
:1030B000052B3FF658AF1BF8031008293FF453AF18
:1030C000EFF3108372B634443C44527F6270A278AE
:1030D000954208BF84F80290002BC7D1C5E7019143
:1030E000AFF3008062B6A844019905EB450507EBF4
:1030F0004808A6E7380F002000000000000000008C
:10310000048E0600E00B00202DE9F04F85B0DFF8BB
:103110000C81019301EB41034FF0200C18F80340A0
:1031200003916445924682F800C073D04B01DFF8EA
:10313000F09006469B4610E0727B012A02D0427D49
:10314000012A57D00BEB040308EB43038AF8004035
:103150005B7F202BA4465DD01C4604EB440009EBAA
:10316000C000D0E9032387683568716813EB070E48
:1031700042F10002754571EB02024FEA4403DBD2D3
:103180001D46019B83F800C0039B4FEA431B28198F
:1031900009EBC0003768B368D0F808A07268C1684E
:1031A000DB1942F100029A4571EB020310D3437D13
:1031B000012B02D0737B012B03D0012005B0BDE8A9
:1031C000F08F01F00AFFAAEB070701308742F4DA1B
:1031D000019A254409EBC5051470A97DB27B0BEB60
:1031E0000403914208EB430310D95C7F202CE4D008
:1031F0006500CCE7029301F0F0FEED1B0130854243
:10320000A0DA029B9AF800C01D46BAE7002005B07C
:10321000BDE8F08F019B1C70CFE700BF380F002086
:10322000E00B00202DE9F04F83B00D4616461F46F7
:103230009DF83090FFF71AF92A686B68861947F1F4
:103240000007964277EB030342D3DFF88C8005E05A
:103250005E4577EB04033BD3C5E900B40DF10703EA
:103260000DF1060249462846FFF74EFF88BB9DF840
:10327000073003EB430308EBC303D3E902A41A6945
:103280001AF1030B44F1000412EB0B0B6A7B44F1BF
:103290000004012ADCD05B7D012BD9D101F09DFE19
:1032A000ABEB0A0301308342D2DA9DF8073003EB1F
:1032B000430308EBC303D3E9024A01F08EFE013059
:1032C00010EB040B4AEBE0745E4577EB0403C3D2CA
:1032D000002003B0BDE8F08FE00B00202DE9F0479F
:1032E00015461C4612782F7A95F809C088B000233D
:1032F000E360C4E90033A7739DF8408084F80DC0F3
:103300000646A360E2730F46002A3AD1FEF7F2FFA9
:10331000D5E9042C3C4BC31841F1000E9A427CEBDA
:103320000E030AD3013E47F1FF37C4E900674FF4AB
:103330007A73A36008B0BDE8F087263041F1000140
:1033400082427CEB0103EDD3501E04F10C036CF1BF
:103350000001009304AA06ABFFF72EF8049B6868EF
:1033600002330DF10F0205A91844FEF7F9FFDDE95C
:10337000053207999B1A23F07F43C4E90021A3601B
:10338000D8E7224804F10C0206A9FEF7E9FF204B1A
:103390001B78202B24D01F490B69D1E90521083364
:1033A00042F1000A13EB01094AF1000A6B68207B25
:1033B0001844023005AA04F10801C4E9009AFEF796
:1033C000CFFF2869CDF8008032463B462146FFF703
:1033D00029FF0028AED1C4E9006708B0BDE8F08736
:1033E000637B16F1080947F1000A012BDED0FEF7D6
:1033F0003DFB0028DAD101F0F0FD10EB09039946FE
:103400004AF1000AD2E700BF0040420FFF7F841E4E
:10341000E00E0020E80E00202DE9F04700EB40030D
:10342000344DDFF8D480EC5C06464700FFF774F9B2
:103430004FF0200C4FEA461E04EB440108EBC1019B
:103440000EEB0403D1F808A00A69AAEB000929F0E1
:103450007F49B9F5000F05EB43030DD812EB0A02C3
:10346000121A22F07F42B2F5000F05D8BCF1200FEE
:103470000AD12046BDE8F0875B7F202BA4461C467E
:10348000DAD1BCF1200FF4D00CEB4613BA1905EBDE
:10349000430315F802805B7FAB54710144464FF043
:1034A000040E0B1905EB430322469445204683F88E
:1034B0001CE05C7FF5D1BB192B440A4493F802E071
:1034C000BEF1200F5FFA8EFC18BF8C443E4418BF3B
:1034D00005EB4C0C05EB4202354408BF83F8018034
:1034E0004FF0200318BF8CF81D80A870537720463A
:1034F000BDE8F087380F0020E00B00202DE9F041F7
:1035000001EB41034A4DEE5C202E82B00C46804612
:103510004FEA410740D1474B0BB1AFF3008001F0B8
:10352000BEFEAB7C0191202B0AD0434BD3E904E2D1
:1035300010F1020C41F10003E64572EB030330D3B6
:10354000202E0AD042463346FFF7E8FA00283DD045
:103550000220AE7402B0BDE8F081D5E90223B3F1D8
:10356000FF3F08BFB2F1FF3F1FD12B7C43BB0420BC
:10357000FFF77CF9FFF736FA0020FFF743FAA96955
:103580004FF080422020A874002301200B60C2F875
:10359000083502B0BDE8F0810846FFF73DFF8642DE
:1035A000B9D0002002B0BDE8F08101F014FD4FF069
:1035B000FF334FF0FF32C5E902232B7C002BD6D01E
:1035C0000520FFF753F900232B74D0E73A1906EBD7
:1035D000441305EB430315F802C05B7FAB54610154
:1035E0006246042013468A1805EB42029E42107779
:1035F000527FF7D13A192A443C449678F0B2202EF3
:1036000018BF4018194418BF05EB400005EB4101F5
:10361000254418BF80F81DC0AB704FF000004FF07C
:10362000200308BF82F801C04B7702B0BDE8F081EB
:10363000380F002000000000E80E002038B5164AC0
:10364000164D4FF0FF304FF0FF310023C2E9020169
:10365000C5E90201202142F22000A970136082F81E
:103660002030A9741C4628806B742B7405F11C0251
:1036700002F814300134202CFAD1094800F0D2FFAE
:10368000084B094A1C70107001F08CF8A861FEF715
:10369000E7FF0123EB7438BDE80E0020380F00204F
:1036A000B92E0000E00E0020100F00202DE9F04F91
:1036B00083B001F0F4FDDFF87C8206460C46FFF78C
:1036C00091F94FF0FF334FF0FF32C8E9022398F829
:1036D0002030D3B9D8F81030D8F81820D8F8141002
:1036E0008F48023341F100019B1802F5DF62A0FB15
:1036F00002024FEA922241F100019B1841F10001C0
:103700009E4274EB010380F0FB804FF0FF304FF0DE
:10371000FF31FFF717F8834A92F800B0BBF1200F92
:1037200000F0E980804D20231370AB746B7C002285
:10373000C8F8002003EB43025FFA83F9AF5C5B003B
:10374000202F00930AD0DFF8E8A107EB47030AEB2C
:10375000C3037A00D97D012900F0A880009BDFF81F
:10376000D8A103EB09062E444FEA49173478202CE0
:1037700004D04846FFF750FE8442F7D1BAF1000F5B
:1037800001D0AFF3008001F08AFDAB7C202B09D083
:10379000D8E9042310F1020E41F1000C724573EBDD
:1037A0000C03E3D3202C34D023460122FFF7B6F9D3
:1037B000002852D0AC7407EB0B0305EB43031A7FD0
:1037C000022A1BD1009A4A442A440621197791788B
:1037D000CBB220291CBFDB1905EB43035F4418BFA4
:1037E00083F81DB0009B08BF82F801B04B442B4406
:1037F00005EB470783F802B020237B77FF23AB71EB
:10380000009B4B441D446B78202B60D103B0BDE876
:10381000F08FD5E90223B3F1FF3F08BFB2F1FF3FBC
:1038200007D001F0D8FB4FF0FF324FF0FF33C5E96E
:1038300002232B7CA3BB0420FFF718F8FFF7D2F874
:103840000020FFF7DFF8A9694FF080420023202015
:10385000A8740B60C2F80835ADE73B1905EB4303CC
:1038600030785B7F3370024604211346BA1805EBAB
:1038700042029C421177527FF7D1B178B370CAB23D
:1038800020291CBFD21905EB42023B4405EB430340
:1038900018BF50774FF0200208BF70705A7765E765
:1038A0000520FEF7E3FF00232B74C4E75B7D012BAB
:1038B00014D1033644F1000417440AEBC70ADAE9CD
:1038C0000223B242A34128BFCAE9026446E7174B6C
:1038D000187803B0BDE8F04F00F0C0BE0192FEF7CB
:1038E000C5F8019A0028E4D101F077FB8619019A06
:1038F00044F10004E0E740F2B121702000F00EFE38
:10390000084B0B4A1B78182101FB03F3D018072141
:103910004068D358984740F2A621702000F0FEFD81
:103920009300DC92E00E0020380F0020100F0020E2
:10393000E00B0020E80E00200000000038B50C4627
:10394000054601F050FB11494B7C01F11C0C5FFA5C
:1039500083FE0CEB831C002302E00133202B13D0E9
:103960001CF81320D8B2002AF7D1094A03EB4E1EE7
:1039700003EB430301EB4E0142F8335002EBC30368
:1039800001220A775C6038BD184638BD380F002028
:10399000E00B00201F2808D80A494B7C00EB43139A
:1039A00001EB43031A7F012A01D0002070474B7CB2
:1039B00000EB431301EB43034FF0000C104683F878
:1039C0001CC07047380F002010B5054CD4E9040125
:1039D000FEF790FC237F0133181841F1000110BD60
:1039E000E80E00202DE9F04FAC4A53688FB0C3F3C6
:1039F000080383460491002B40F06281082303935F
:103A0000049B1B78012B00F23D82A54E26B10021BC
:103A100040F22E50AFF300800023A24C05934FF0EC
:103A2000010926B1002140F23B50AFF30080B9F10B
:103A3000000F04D19C4B0BB1AFF3008062B6657CE4
:103A4000EDB24FF00003A371039B002B40F0988070
:103A5000A84626B1002140F24F50AFF3008001F09C
:103A60001EFC049A00950AAB8246FFF737FC26B18C
:103A7000002140F25750AFF300800BEB481904EBE4
:103A800049094FEA481799F81C30013B012B75D8BA
:103A90000A992AF07F4AA1EB0A0222F07F4323F021
:103AA0000103002B40F0BD8008EB4802224407EBE5
:103AB0000B03907804EB43030421202819774FEA85
:103AC0004803C1B200F09681394404EB410181F80A
:103AD0001DB0434423445F4404EB470783F802B01E
:103AE00020237B7700230593012726B1002140F294
:103AF0005C50AFF300806D4B0BB1AFF30080EFF380
:103B00001088C14672B6A379002B8AD1684B0BEBA3
:103B10004B0C03EBCC0C0AAB0FCB0CF1080C8CE874
:103B20000F008FB1039B002B00F0EA80059B23B1AF
:103B3000604B1B78202B00F06081637CDB4303F03B
:103B400001036374FF23A371B8F1000F04D1564B36
:103B50000BB1AFF3008062B626B1002140F2935062
:103B6000AFF30080002F4AD126B1002140F29F50D0
:103B7000AFF3008038460FB0BDE8F08F0027B4E700
:103B80004D4B05F1010A0AF0010A03EB851E03EB18
:103B90008A1CBEE80F00ACE80F00BEE80F00ACE8DE
:103BA0000F00BEE80F00ACE80F009EE80F002DB23A
:103BB0008CE80F00D0460FFA8AF726B100214FF4A7
:103BC0007370AFF3008005EB450507EB47076319FA
:103BD000625B9B78E2532744BB7056B100214FF4DF
:103BE0007470AFF3008026B1002140F24550AFF36E
:103BF0000080A379002B7FF414AF554629E7637C3E
:103C000003EB43031C446378202BADD026B1002185
:103C100040F29A50AFF30080284B187800F01EFD58
:103C2000A2E722F07F42B2F5000F3FF63DAF0C9BBA
:103C30005B18A3EB0A0323F07F43B3F5000F3FF6B5
:103C400033AF0DF127030DF1260229460AA8FFF72D
:103C50005BFA059000285AD108EB4802224404235D
:103C6000907889F81C304FEA48032028C1B24344B9
:103C700018BFC91923445F4404EB470718BF04EB7E
:103C8000410183F802B04FF0200314BF81F81DB04A
:103C900082F801B07B77012727E700BF00ED00E045
:103CA00000000000380F00200000000000000000AD
:103CB000E00B0020E00E0020540F0020100F002029
:103CC000103B59B20029C0F28D8001F1604101F52D
:103CD000614191F800335B090393002B7FF490AEB0
:103CE000704B1B78202B00F0D280049B1B78039331
:103CF000002B3FF48AAE40F22751702000F00EFCFA
:103D0000FF23A371B8F1000F7FF426AF1FE79DF8E2
:103D100026C09DF827E0F44518D1BCF1200F00F033
:103D20009E8007EB0C0304EB43035B7F89F81D3097
:103D3000BC4404EB4C0C00228CF81DB05F4404EB37
:103D40004703059F059203221A77CEE6BEF1200FA6
:103D500000F0A28007EB0E0304EB4303BCF1200F3D
:103D6000597F00F0878007EB0C0204EB42024FEA18
:103D70004803507F069051774FF0050A3A1804EB3C
:103D8000420201468E45814682F81CA0507FF5D143
:103D900003EB08022244079192F802A0BAF1200F27
:103DA0005FFA8AFE63D0BE4404EB4E0E069A8EF88C
:103DB0001D2003EB08022244079982F8029039443F
:103DC00007EB0B024FF0200E04EB410104EB420223
:103DD000F44581F81DE05077AAD14344059A04F8D0
:103DE00003B0ABE703F00F03043B13441B7E5B09F6
:103DF000039372E782F801B06BE629460220FFF7D1
:103E00007DFB00287FF499AE637C03EB43002044E4
:103E10000BEB431204EB420285780421DFB21177E9
:103E20005A015B00202DE9B23B4418BF8918234496
:103E30005A4418BF04EB410104EB420283F802B07C
:103E40004FF0200318BF81F81DB0059F08BF80F810
:103E500001B05377B8F1000F7FF47EAE77E608EB40
:103E60004803E35C89F81D304FEA4803B5E706993B
:103E700051709EE708EB48024FEA4803A05C0690A9
:103E8000A15479E740F22B51702000F047FB40F23B
:103E90002451702000F042FB40F2CB11702000F062
:103EA0003DFB00BFE00E002070B586B007280DD89E
:103EB000DFE800F0310C0C0C0C1D040E5F4B4FF0D2
:103EC00080419A690123C1F80835136006B070BDBE
:103ED0005B4B5C4A1B7803EB430302EBC30052F8D5
:103EE00033304068042106B0BDE870401847534C99
:103EF000237C002B48D0D4E90223B3F1FF3F08BF55
:103F0000B2F1FF3F00F084800120FEF77BFD00232B
:103F1000237406B070BD494CD4E90223B3F1FF3FCE
:103F200008BFB2F1FF3F55D0454E0120FEF76AFDB4
:103F30003378202B55D0444D6A7F012A3BD0FDF7C2
:103F400095FD0346002835D194F89C200132D2B269
:103F5000312A84F89C206CD84FF47A723078694604
:103F6000CDE90032CDE90233CDE90433FFF73AFD64
:103F7000002859D095F82040012385F82030FFF71C
:103F800095FB85F82040A1E72D4B2E4A1B782E4942
:103F900003EB43034FF0FF344FF0FF35C1E9024517
:103FA00002EBC30152F833304868052106B0BDE882
:103FB000704018473378234A03EB430302EBC300F6
:103FC00052F833304068002184F89C1006B0BDE8F8
:103FD0007040184700F0FDFF01F061F9C4E90201EB
:103FE000A2E7637C03EB4301DAB2635C202B16D0BB
:103FF00003EB421204EB4202507F6054FF21A17197
:10400000114D337002211177002285F8202093E7AB
:1040100000F0DFFF01F043F9C4E9020174E740F268
:104020004221702000F07AFA40F21961702000F00D
:1040300075FA40F21561702000F070FA380F002018
:10404000E00E0020E00B0020E80E002070B5234BAE
:104050001A78202A86B036D0214CD4E90213B3F165
:10406000FF3F08BFB1F1FF3F32D11E4E02EB4202CB
:1040700006EBC2060546D6E90201FEF73BF9327DA2
:1040800053194FF000025241013342F10002181857
:1040900042EB01010DF10B0204AB009203AAFEF703
:1040A0008BF99DF80B20DDE904130F2A94BF002241
:1040B0000122521843F100030520C4E90223FEF750
:1040C0002FFC06B070BD40F2AF71702000F026FAF0
:1040D0004FF4F661702000F021FA00BFE00E0020DE
:1040E000E80E0020E00B002038B5254B93F800E0E7
:1040F000BEF1200F3FD0234D6B7C95F811C003EB30
:1041000043035FFA8CFCEB5C202B25D01E4C4FEA5E
:104110004C1C05E0634405EB43035B7F202B1BD065
:1041200003EB430204EBC202917D8142F2D80EEB15
:104130004E0E04EBCE04D4E90213206940189168B6
:10414000D26843F10003C41C43F10003A14272EBA7
:10415000030304D2002038BD4FF0FF3038BD0B4BB5
:10416000081A03381C68FEF7B7F804F132038342DB
:10417000F0D8001B38BD40F2E471702000F0CEF999
:10418000E00E0020380F0020E00B0020E80E002099
:104190002DE9F04F8C4B1D7887B0202D019000F059
:1041A0000D81DFF83092DFF8308299F8113003EB9F
:1041B00043030646D8F8000019F80340D8F8103039
:1041C00003930DF11302D8F8183002938B46304454
:1041D00005A9FEF7C5F87D4BA6F132029A426AD8CE
:1041E000DFF8F8A1059BD8F8146005EB45050AEB4C
:1041F000C505A8681B182869D8F810501818401B66
:1042000020F07F43B3F5000F55D899F81120C8F876
:104210001800202C88F81EB0D2B200F0C2805201E3
:10422000DC462021934604EB440240190AEBC2020B
:1042300046F1000ED2E90263864273EB0E034FEAA9
:10424000440746D3537D012B03D098F81D30012B32
:1042500035D005200091FEF709FB009999F811006F
:104260004FF0FF324FF0FF332029C8E90223C0B2DC
:1042700040F0958000EB4000202419F80030524AAD
:1042800099F81110127802EB411209EB42025377B0
:10429000D8F80030019A1344C8F80030FF2389F899
:1042A0000630202C35D04A4B187800F0D7F9002082
:1042B00007B0BDE8F08F012007B0BDE8F08F009196
:1042C00000F08BFE751B013085420099C1DA98F829
:1042D0001EC027440AEBC707BB7D63450DD90BEB16
:1042E000040309EB43035B7F202B16D02146D8E95A
:1042F0000456D8F818001C4695E7DDE90231D8F8D5
:1043000010205B189B1A0220C8F8183007B0BDE8CF
:10431000F08F002007B0BDE8F08F0520FEF7A6FA69
:104320004FF0FF324FF0FF3399F81100C8E9022334
:10433000C0B204EB401309EB430346005A7F00EB85
:104340004003410119F803A009F803204FF0050CC0
:104350005346CF1809EB47071A4694421D4687F883
:104360001CC07B7FF5D137184F440A4497F802E010
:10437000BEF1200F5FFA8EFC18BF8C44304418BF8A
:1043800009EB4C0C09EB420248444FF0200114BFEA
:104390008CF81DA087F801A0857051776FE70C4657
:1043A000C7E70520FEF762FA99F811004FF0FF32D7
:1043B0004FF0FF33C8E90223C0B25BE740F60D01BE
:1043C000702000F0ABF800BFE00E0020CE3F420F9F
:1043D000100F0020380F0020E80E0020E00B002016
:1043E000BFF34F8F0549064BCA6802F4E0621343DE
:1043F000CB60BFF34F8F00BFFDE700BF00ED00E0D3
:104400000400FA05094B01225A604FF0FF32C3F84D
:104410000823074B4FF48042C3F88020BFF34F8F2F
:10442000BFF36F8FC3F88021704700BF00E00040EA
:1044300000E100E0094B01225A604FF0FF32C3F85F
:104440000823074B4FF48052C3F88020BFF34F8FEF
:10445000BFF36F8FC3F88021704700BF00C00040DA
:1044600000E100E0084B0022C3F8FC2F0122C3F852
:10447000FC2F064B0222C3F88020BFF34F8FBFF3FF
:104480006F8FC3F8802170470010004000E100E00A
:10449000F8B51B4E337805460C4617466BBB00F04B
:1044A00021F9FDF791FA174B7760002D08BF1D46E3
:1044B00028463472FFF7D6FFFFF7BCFFFFF7A2FFD5
:1044C00000F08DFD0546B0B9FFF7B8F800F089FDA2
:1044D00000F036FE002C0CDB04F01F026409A4007F
:1044E00004F1604404F5614401239340C4F8803131
:1044F0002360012333702846F8BD4FF0FF35FAE7FB
:10450000D80F00200A8E060008B572B6024B5B6811
:1045100003B19847FFF764FFD80F00201FB572B6AC
:10452000134B5D688DB9FFF75BFFB2FBF6F2DCB2AF
:104530000133002AF9D104F110036B4403F80C2C69
:104540000A2234B901A8A847EDE7024600230A264B
:10455000EDE7631E04AEDCB256FA83F3B0FBF2F66D
:1045600002FB1600303003F80C0C3046E9E700BFC0
:10457000D80F0020074B93F90830002B09DB5A09AC
:10458000012103F01F0301FA03F34032024941F80D
:1045900022307047D80F002000E100E0014B18786E
:1045A000704700BFD80F00201B4B4FF4805270B5EE
:1045B000C3F88020BFF34F8FBFF36F8F174D184C98
:1045C0000021C5F80011C3F880212669236943F052
:1045D000100323610123C5F8043306F010062B6095
:1045E000D5F80031A3B11EB9236923F0100323616C
:1045F0000A4B0122D3F808055A60C3F808230022A9
:10460000C3F80021044B4FF48052C3F8802170BDE1
:1046100000F071FEE4E700BF00E100E000C00040F0
:1046200000ED00E038B50C4902460520431ED8B223
:10463000FF2803D148216920FFF770FF01EBC00379
:104640001D7905F0FF04002DF0D141F83020012242
:104650005C719C711A7138BDE80F0020042808B500
:1046600003D958216920FFF759FF094B03EBC0001C
:104670000379012B01D05921F4E743798279013381
:10468000DBB29A4218BF4371BDE80840FFF772BF22
:10469000E80F002070B5124C06250026013D15F0EC
:1046A000FF0500D170BD94F8281004EBC1031A79FE
:1046B000012A09D158799A79904205D05A79D2B213
:1046C0009A7154F83130984794F828300133DBB2AE
:1046D000042B94BF84F8283084F82860DEE700BFFC
:1046E000E80F00204FF08052034BD2F830111960D0
:1046F000D2F834215A60704714100020034B186818
:10470000A0F10F0358425841704700BF1410002019
:10471000034B1868A0F10A0358425841704700BF84
:1047200014100020034B1868A0F10E0358425841A2
:10473000704700BF14100020034B1868A0F110034D
:1047400058425841704700BF14100020044B1868AD
:10475000062803D0431C5842584170470120704737
:1047600014100020034B1868A0F10D035842584163
:10477000704700BF14100020034B1868A0F1080315
:1047800058425841704700BF1410002008B5FFF789
:10479000BFFF20B1024B5868B0FA80F0400908BD55
:1047A0001410002008B5FFF7A9FF70B9FFF7B0FF9C
:1047B00058B9FFF7B7FF40B9FFF7C8FF044A054BE8
:1047C000002808BF1346184608BD024BFBE700BF90
:1047D00000E701400C05004008B5FFF7B7FF08B33C
:1047E000EFF3108072B6104A1369116941F010019D
:1047F0001161A2F5406203F01003D2F80011D2F863
:1048000004210A4300D040BF20BF00BF00BF00BF4B
:1048100000BF23B9044A136923F01003136100B9E0
:1048200062B608BD20BFFCE700ED00E02DE9F041D5
:1048300084075FFA81FE5FD0002A59D0034601E069
:10484000002A55D003F801EB990702F1FF32F7D1A6
:104850004EEA0E24032A44EA04443ED9151FAE084A
:10486000172D06F10106C3F3800147D998460029A8
:1048700040D048F8044B771A03EB810C79080CEB15
:10488000C101CCE900440CF1080C6145F9D127F0D5
:10489000010C08EB8C016745CCEB8C7805EB8805A7
:1048A00017D02F1F032F0C6013D9A5F10807032F72
:1048B0004C600ED9A5F10C07032F8C6009D9A5F126
:1048C0001007032FCC6004D9143D032D0C6188BF61
:1048D0004C6102F0030203EB86034AB1013A83F80C
:1048E00000E005D0012A83F801E018BF83F802E058
:1048F000BDE8F0811546BEE70346A9E7194615460F
:10490000CFE700BF014B1B681B6818474800002019
:10491000014B1B685B68184748000020014B1B686F
:104920009B68184748000020014B1B681B6918470B
:104930004800002038B50420204CFFF7D5FB25683F
:10494000854228BF054604212846FFF721FC30B1E7
:104950000138C0B2012820D94FF4A27108E02368C1
:10496000E068AB420DD1FFF771FB20B94FF49271B3
:104970006B20FFF7D3FDE268236822611344E360F4
:1049800038BD05446089E5600123281A2375FFF7C7
:104990005DFB68B94FF49771EAE70123E06823757E
:1049A0006389C01AFFF752FB10B94FF49E71DFE71D
:1049B0006289E3689B1A2361E2E700BF20100020B0
:1049C00008B50C4B1A7802F0FF0312B15A1E1A42B6
:1049D00003D0E0216B20FFF7A1FD19B1034207D1FD
:1049E000E521F7E723EA00039B0601D1E921F1E77E
:1049F00008BD00BF4C00002008B50D4B01221A76FF
:104A00004FF482721A841A68DA615A689A62094A03
:104A100093F830000221117003F11801FEF7E2FF54
:104A200020B940F205116B20FFF778FD08BD00BFEB
:104A3000201000204C00002070B5EFF3108572B6F6
:104A4000264C94F831600023012E84F8313006D0D2
:104A5000022E1DD0002E3BD185F3108870BD85F34A
:104A6000108894F8323003F0FF0123B140F2511165
:104A70006B20FFF753FD1420FFF7A2FF184B84F8BB
:104A800032601B78012BE9D1BDE87040FFF7B4BF5D
:104A900094F8322012B94FF4B171E9E7104984F863
:104AA00032300B78023BDBB21E2B0ED8012202FA09
:104AB00003F30C4A1342CFD144F20402134204D050
:104AC00020230B70FEF7F2FDC6E74FF4BF71CFE76E
:104AD00085F310884FF4D271CAE700BF2010002080
:104AE0004C0000204100004070B5144C94F8335045
:104AF00025B140F287216B20FFF710FD104B84F8A1
:104B0000325001261E700F4B0F484FF4C852C4E9B3
:104B100000230E4BA360FFF785FD294684F834007F
:104B20000B48FEF70BFF202884F8300002D140F23A
:104B30009621E0E784F8336070BD00BF20100020AC
:104B40004C000020FF3F420F394A00000500B7002B
:104B5000C14C000008B5104B93F8332022B940F245
:104B6000F6216B20FFF7DAFCEFF3108172B693F8B1
:104B7000312022B1012A0DD040F20631F1E70222A4
:104B800083F8312001B962B693F83400BDE80840DB
:104B9000FFF764BD0022F3E7201000200B4B93F8D1
:104BA000333010B523B940F215316B20FFF7B6FC56
:104BB000EFF3108472B6064B1A78102A03D108223C
:104BC0001A70FEF773FD04B962B610BD2010002004
:104BD0004C00002070B5164B1B78042B25D1154EC8
:104BE000337D1BB973893068C01A70BD00F055FB66
:104BF00010F11E0441F10005FEF7E6FE33691B18B3
:104C000041F100019C4275EB01004FF000020CD213
:104C1000181B4FF0FF3361EB0501834272EB010378
:104C2000E3D2A7216B20FFF779FC0020DDE700BF6E
:104C30004C0000202010002038B5144C94F833307C
:104C400023B940F2CB216B20FFF768FCEFF310850E
:104C500072B694F8313023B1022B0DD040F2DE2130
:104C6000F1E7012384F8313005B962B694F83400D5
:104C7000BDE83840FFF7F2BC054B1B780022042B3F
:104C800084F83120F0D14DF013FBEDE72010002027
:104C90004C00002008B5094B19781029CAB207D07A
:104CA000202A05D0042A04D110221A704DF010FBDE
:104CB00008BD40F2C3116B20FFF730FC4C00002010
:104CC00070B50C46FDF728FD062C48D8DFE804F047
:104CD0000451512823645D0001210220FFF770FE7A
:104CE000304B314A93F8321079B1042111701A68AF
:104CF000DA6000221A7593F83130022B01D04DF0A2
:104D0000D7FABDE87040FFF715BE20231370BDE849
:104D10007040FEF7CBBC40F20F216B20FFF7FEFB8B
:104D2000204E96F83230D3B11F4B1B78042B17D18D
:104D300000F0B3FA05460C46FEF746FE327D012A26
:104D40000BD13269121841F10003954274EB030351
:104D500003D3BDE87040FFF79DBF16F0DFFE70BDC6
:104D6000124B0222C3F88020BFF34F8FBFF36F8F27
:104D7000F5E701210220FFF723FE0A4B93F83230BA
:104D800033B1BDE87040FFF737BE01212820F2E7BC
:104D9000054B01221A70E2E7024B1B7D012BB0D1BB
:104DA000D7E700BF201000204C00002000E100E009
:104DB0007BB972B90029BEBF00204FF0004106E068
:104DC00008BF00281CBF6FF000414FF0FF3000F01B
:104DD00057B8ADF1080C6DE904CE002909DB002BB2
:104DE0001ADB00F0A5FADDF804E0DDE9022304B0E7
:104DF0007047404261EB4101002B1BDB00F098FA49
:104E0000DDF804E0DDE9022304B0404261EB41013A
:104E1000524263EB43037047524263EB430300F09B
:104E200087FADDF804E0DDE9022304B0404261EBDB
:104E300041017047524263EB430300F079FADDF819
:104E400004E0DDE9022304B0524263EB4303704700
:104E500053B94AB9002908BF00281CBF4FF0FF31E1
:104E60004FF0FF3000F00CB8ADF1080C6DE904CE46
:104E700000F05EFADDF804E0DDE9022304B07047DB
:104E8000704700BF08B5FFF72DFCBDE80840FCF7F0
:104E90009BBD70B5841A04F307040E4660B259B284
:104EA0001546FCF781FD002330702844737040B232
:104EB00070BD37B5A0F10B04E0B20F28154603D939
:104EC0004F216420FFF72AFB0DF103030A46014638
:104ED0000420FCF725FD034608B15821F1E704EB57
:104EE000840404F665149DF90300A2B201A9FCF73D
:104EF00007FD9DF804302B709DF805306B7003B0F2
:104F000030BD0023036070477047002070474FF0AA
:104F1000FF3070474FF0FF307047704700207047F8
:104F20004FF0FF307047002070470020704700238B
:104F3000037070470022FFF7ACBF002070474FF0AE
:104F4000FF3070474FF0FF3070474FF0FF30704731
:104F50007047C0B270474FF0804301221A6070471B
:104F60004FF08043D3F8080400F0010070474FF081
:104F70008043D3F8140400F0010070474FF08043E1
:104F8000D3F81C0400F0030070474FF08042D2F8C1
:104F90001834D2F8182413F4803305D002F0030338
:104FA0001B1A5842584170471846704708B5FFF71A
:104FB000EDFB28B14FF080430222C3F8342C08BD2A
:104FC000FFF7C4FB0028F5D1FFF7D6FB0028F1D18D
:104FD000F5E7FCF789BDFCF7B5BDFCF77FBDFCF735
:104FE0008BBEFCF7C9BDFCF77BBE08B5FCF76CFDBA
:104FF000002008BD38B5054691F827000C46FEF79D
:10500000C9FC18B9E8216A20FFF788FA0023A384B5
:1050100084F826300921236A2846984718B1037876
:105020000BB1EC21EFE738BD426808B503461144E7
:105030001A785960012AA1F1500006D1FFF706F84D
:1050400040B9CC216A20FFF769FAFEF7FFFF08B9E3
:10505000D121F7E708BDF8B504460E4619B901237A
:1050600084F829303BE00D78032DF8D8DFE805F00F
:10507000390212154868C72802D800252846F8BD0D
:105080000421FFF785F80028F7D171682046FFF763
:10509000CBFFF3E7FCF7A0FFF0E790F82470F7B937
:1050A0004D682846FCF76CFF0028D8D02B78D3B980
:1050B000012222702B79003B18BF012363726B79A8
:1050C000002B0CBF022304232372AB686F33636091
:1050D000EB682361032384F8263084F82520FCF74D
:1050E0007BFF0225CAE794F82630052B04D04FF445
:1050F000C8716A20FFF712FA27702B7994F82700FD
:10510000003B18BF012363726B79002B0CBF022395
:1051100004232372EB68A9686F336360D4E9063215
:105120005B1842EBE172C4E90432042384F82630B0
:105130002146FEF757FC0028D1D14FF4C971D8E7BA
:1051400070B5FDF79FF8002405462646E0B285427B
:1051500000D870BDFDF79CF80134868480F8266085
:10516000F4E7F8B504460D46FDF78CF8002706462F
:10517000F8B2864204D8082D0CD96FF0150008E06B
:10518000FDF786F890F826300137002BF0D04FF06D
:10519000FF30F8BD2CB129462046BDE8F840FDF7A8
:1051A00085B821462046F8E738B50546FDF770F882
:1051B000014688B190F824408CB990F8263073B13C
:1051C000013B012B04D82846FFF714FF204638BDC9
:1051D000012380F82430F9E76FF00100F7E76FF062
:1051E0002200F4E770B50D46FDF752F8044600289A
:1051F00048D090F82660731E012B49D8002D44D06A
:105200002846FCF7BDFE00283FD02B78FBB90123D0
:1052100023702B79003B18BF012363726B79002B3D
:105220000CBF022304232372AB686F336360EB6807
:105230002361032394F8270084F826302146FEF7E3
:10524000D1FB40BB40F2BD216A20FFF767F9022E77
:105250001ED1002323702B79003B18BF01236372FA
:105260006B79002B18BF04262672EB68A9686F3390
:105270006360D4E906325B1842EBE172C4E90432A0
:105280000423D7E76FF0010070BD6FF01500FBE756
:105290006FF02200F8E70020F6E7FDF743BA07B504
:1052A0006846FDF733F9DDE900024FF08073002115
:1052B000E2FB030103B05DF804FB00230370184612
:1052C0007047EFF3108272B603780121DBB20170F0
:1052D00002B962B6012B0CBF6FF0220000207047AC
:1052E000EFF3108372B60022027003B962B6002099
:1052F0007047FFF7CFB9FFF76FBAFFF76DBA002815
:105300000CBF6FF015000020704700207047072386
:10531000037000207047002070470020704710B5D0
:105320000446FFF757FCA04294BF0020012010BDA7
:105330002DE9F04786468C460846089E1546744679
:105340001946002B40F0C2808542B2FA82F245D95C
:105350004AB1C2F1200300FA02FC2EFA03F3954091
:1053600043EA0C0C94404FEA154EA8B2BCFBFEF881
:10537000230C0EFB18CC08FB00F943EA0C439945BB
:1053800028D9EB1808F1FF3704D2994502D9A8F1C2
:1053900002072B44A3EB0903A4B2B3FBFEFC0EFBF4
:1053A0001C330CFB00F044EA0344A04214D92C192E
:1053B0000CF1FF3304D2A04202D9ACF102032C4419
:1053C000241A43EA07401EB1D440002334607360BE
:1053D000BDE8F0874746DDE76346F1E792BB431B34
:1053E00001214FEA154EAFB2B3FBFEFC200C0EFBC1
:1053F0001C330CFB07F840EA0343984562D9EB18CD
:105400000CF1FF3004D2984502D9ACF102002B44D4
:10541000A3EB0803A4B2B3FBFEFC0EFB1C330CFB96
:1054200007F744EA0344A7424ED92C190CF1FF3385
:1054300004D2A74202D9ACF102032C44E41B43EA94
:105440000040C0E7C2F1200320FA03F195409040EC
:105450002EFA03F303434FEA154EAFB2B1FBFEFC45
:105460000EFB1C10190C0CFB07F841EA00418845A3
:1054700004FA02F422D969180CF1FF3004D28845ED
:1054800002D9ACF102002944A1EB08019BB2B1FBA7
:10549000FEFC0EFB1C110CFB07F743EA01439F4285
:1054A0000ED9EB180CF1FF3104D29F4202D9ACF1B6
:1054B00002012B44DB1B41EA004192E76046E3E72F
:1054C0006146F7E76046A3E76346B7E7834206D93C
:1054D00016B9002108467BE7C6E900E0F9E7B3FA10
:1054E00083F78FB9834201D3724508D8BEEB02041B
:1054F00060EB030301209C461EB9002168E7384693
:10550000FAE7C6E9004CF8E7C7F1200CBB4022FAE5
:105510000CF41C432EFA0CF120FA0CF3B8400143B2
:105520004FEA14490EFA07F5B3FBF9F81FFA84FEA7
:1055300009FB18300B0C08FB0EFA43EA00439A45AE
:1055400002FA07F240D9E31808F1FF3004D29A4575
:1055500002D9A8F102002344A3EB0A0389B2B3FBEA
:10556000F9F809FB183308FB0EFE41EA03418E45AA
:105570002CD9611808F1FF3304D28E4502D9A8F165
:105580000203214443EA0040A0FB0298A1EB0E0174
:105590004145CE46434602D306D14D4504D2B9EB30
:1055A000020E68EB04030138002EA6D0B5EB0E0204
:1055B00061EB030101FA0CFC22FA07F34CEA030346
:1055C000F940C6E9003198E74046C5E74346D9E7C8
:1055D0002DE9F04F9FB08246039116461C460025E8
:1055E000307810B9284600F0A6BD252809D00399C7
:1055F000D0470028C0F29F85731C01350593059E96
:10560000EEE71822002110A857F0C8FB7378252B6D
:105610007ED00023701C98469E469C461F4601463D
:1056200010F8012B2B2A00F0A68000F29D80202A82
:1056300000F0A480232A00F0A4802BB19DF848300C
:1056400043F040038DF84830B8F1000F05D09DF8C5
:10565000483043F020038DF84830BEF1000F05D0EC
:105660009DF8483043F010038DF84830BCF1000F2E
:1056700005D09DF8483043F008038DF848302FB12D
:105680009DF8483043F004038DF848309DF84830C9
:1056900003F04400442803D16FF386138DF848309B
:1056A0009DF848302A2A43F080038DF8483040F0B6
:1056B00084809DF8492042F001024B1C8DF849205E
:1056C0001A782E2A9DF849200CBF0121002161F390
:1056D00041028DF849207CD15A782A2A72D00133B0
:1056E00000224FF00A0C194611F8010BA0F1300707
:1056F000092F40F2B3809DF848101492C1F3400086
:1057000040EAD2700A4660F341028DF8482060E01A
:105710008DF84B30B31C05939DF849309DF84A2015
:10572000DF0702F0070040F1548154F8041B049194
:10573000002908DA9DF8481041F004018DF848105E
:10574000049949420491590740F14B8154F8047B74
:10575000002F80F24A819DF849306FF341038DF8A4
:1057600049304FF0FF3740E12D2A0DD0302A7FF429
:1057700064AF012353E74FF0010C50E74FF0010EE7
:105780004DE74FF001084AE7012748E70EFB027298
:10579000303A0346184610F8017BA7F1300CBCF1F3
:1057A000090FF3D999428BD09DF848101392D20F6C
:1057B00062F341018DF8481082E70B4600224FF05A
:1057C0000A0EE7E79DF8492042F004028DF84920CF
:1057D00002331A786C2A61D045D8682A4BD06A2ADD
:1057E00065D04C2A6BD013F8012B0593782A8DF8DD
:1057F0004B2000F2AD806D2A6ED8692A00F2A88095
:10580000572A00F28880412A04D0A2F14503022BD6
:1058100000F29E809DF84A3002F0DF020421A2F1DE
:10582000410961F30203D9F100029DF849108DF896
:105830004A3042EB090262F3C7110A068DF849109B
:10584000CBB200F1C48003F07802182A40F0AE8099
:105850006FF3C6038DF8493000239DE00CFB020274
:10586000303A0B463FE7742A25D07A2ABBD19DF8FF
:10587000492006210CE05A78682A9DF8492006D173
:10588000012161F3C6028DF849200233ABE7022102
:1058900061F3C6028DF849200133A4E75A786C2AD7
:1058A0009DF8492001D10421EBE70321F0E79DF8A1
:1058B00049200521ECE79DF849200721E8E7BDF8DC
:1058C000482022F4F04222F0020242F4804242F0E8
:1058D0000202ADF84820DFE76E3AD3B201229A40C7
:1058E00040F282431A429DF8493038D112F0240F19
:1058F00060D1D1072CD59DF84A2003F07803A3F19D
:105900004008032161F30202D8F100038DF84A2018
:1059100043EB080340E0A2F15801C9B2012000FAAC
:1059200001F111F4624F7FF475AF40F601031942A3
:105930009DF8493019D111F4043F09D09DF84A204F
:1059400060F3020203F07803402B8DF84A2083D1E4
:105950009DF8483043F001038DF848307CE79DF80E
:105960004A20022161F30202ECE79DF84A1002206E
:1059700003F0780360F30201402B8DF84A1002BF58
:105980009DF8481041F001018DF84810632A7FF41A
:1059900063AF003B18BF01239DF84820C2F34001CC
:1059A0000B4363F341028DF84820B5E613F0380F3E
:1059B000CED151E79DF84A20032113F0780F61F30F
:1059C00002028DF84A2014BF01230023E4E70123DB
:1059D000E2E79DF948100029B4BF13994FF0FF3159
:1059E000B0E69F077FF5BDAE149F00230428CDE9E4
:1059F00013339DF8493007D1990705D49DF9491013
:105A00000029ACBF06270D2702F00702012AC3F3C5
:105A1000C30332D1DA1E042A04D8DFE802F020459D
:105A2000452020002268012B4FEAE271CDE91021C8
:105A30001BD19DF94020D117CDE9102104349DF8E8
:105A40004820069292074FD0059B03993246504654
:105A500055F09EFD0028C0F26E830544CFE554F852
:105A6000042BD117CDE91021E9E7022BE6D111B2C1
:105A700042F3C032CDE91012E0E7022A24D1DA1E47
:105A8000042A04D8DFE802F0181010181800012BBF
:105A900054F8042B4FF0000114D0022BCDE9102153
:105AA000CDD192B21092CAE7073424F00704F4E88B
:105AB0000201CDE91001C2E754F8042B1092002234
:105AC0001192BCE7D2B2CDE7042A08D1073424F002
:105AD0000704D4E900010834CDE91001AFE7032A37
:105AE000ADD154F8042BDDE79DF84B80B8F1780F69
:105AF0003FF685ADB8F1570F5CD8B8F1250F00F02F
:105B0000A380B8F1240F7FF67AADB8F1410F04D02D
:105B1000A8F14503022B3FF672ADDDE91023002BFF
:105B2000C0F24B810699080700F14A81C1F30019C0
:105B30004FEA4919C3F30A51C3F31303002940F094
:105B4000428152EA030014BF4FF0010C4FF0000CE9
:105B5000D80240EA5250D602CDE90C60B8F1460FA7
:105B600046EA010640EAE17008BF4FF0660830439C
:105B700000F0B181BCF1000F10D01B0343EA1253B7
:105B80001603324618464FF0000C002880F24F8171
:105B9000BCF1000F40F05281CDE90C630D9B43F046
:105BA0000043A1F2FE3B0D930021DDE90C230E46DC
:105BB000052059E1A8F15802202A3FF620AD01A1A5
:105BC00051F822F08D5D0000FF550000FF550000E8
:105BD000FF550000FF550000FF550000FF55000075
:105BE000FF550000FF5500001B5B0000FF55000043
:105BF000395D00004D5D00001B5B00001B5B000079
:105C00001B5B0000FF5500004D5D0000FF550000CC
:105C1000FF550000FF550000FF550000935D000098
:105C20008D5D0000DD5C0000FF550000FF550000A9
:105C3000595C0000FF5500008D5D0000FF5500001D
:105C4000FF5500008D5D000003994046D0470028B5
:105C5000C0F271820135D2E4002F109E3ADB394642
:105C6000304657F0B4F83718002E3FF4C8AC4FF068
:105C700000099DF84A3013F01002069200F050829D
:105C8000023013F04003DDF84C80089318BF149BDA
:105C9000CDF81C80404418BFC018049B002B40F373
:105CA0005A829DF848201B1A04935307C2F3800BB5
:105CB00000F15182500640F14182B9F1000F07D046
:105CC00003994846D0470028C0F235820135D946AD
:105CD000302234E2304657F008F8C4E71098002824
:105CE00000F019820DF17503009312AA17AB002181
:105CF00055F006FCBDF84A3003F0EF0343F4F043DF
:105D000043F010030646ADF84A304FF00009002F6B
:105D10000CDB9DF848200DF175039B1B6FF3861279
:105D20009F428DF8482001D9FB1A1393002E3FF4AF
:105D300066AC0DF1750767E0109B8DF85C304FF095
:105D400000090DF15D0717AE012092E7069B1E07C3
:105D500058BFC3F30019DDE9102354BF4FEA4919B6
:105D60004FF02B09002B06DA524263EB4303CDE9D7
:105D700010234FF02D090DF175030093DDE910019B
:105D800017AB12AA55F0BCFB0646C0E74FF000095E
:105D9000F1E7109A072B3FF632ACDFE803F00C0472
:105DA000060C08080C0C157029E4158027E4EB1785
:105DB000C2E9005323E4156021E44FF02D09B9E650
:105DC0004FF02B09B6E640F2FF7081422CD113430D
:105DD000A8F141081FD1B8F11A0F35BF4923692333
:105DE0004E216E2134BF462266228DF85C309DF82C
:105DF00048308DF85D106FF386138DF85E208DF8B6
:105E000048300DF15F0717AEB81BB9F1000F3FF432
:105E100030AF01302DE7B8F1190F8BBF6E234E2341
:105E2000612141211A46E0E74FF0000C90E69218FC
:105E300001F1FF3140414FF0010CA6E6CDE90C2005
:105E4000ACE6520842EAC3725B08B3F1333F5946ED
:105E50000BF1010BF5D200FB03FCA2FB002301F1C7
:105E6000020B6344013E01211BF1020FE9DB09B182
:105E7000CDE90C23BBF1000FDDE90C322EDCCBF1B8
:105E80000401A1F120000BF11C0B02FA0BFB22FA1A
:105E900000F0CA40CB40079208F0DF0243EA0B0350
:105EA000472A43EA00037DD1F21C01DBB7422BDA1B
:105EB000A8F10208002F5FFA88F87CDD9DF84820E1
:105EC000900607F1FF3776D4B7F1000B18BF4FF0FB
:105ED000010B7A1C27E04FF0000B65E6023342F11C
:105EE00000020CA8CDE90C3255F0DBFADDE90C32EA
:105EF0000BF1FF3B0136DB185241002A0BF1FF3B4F
:105F0000F9DACDE90C32B5E79DF848209106A7EB08
:105F100006074DD4B7F1000B18BF4FF0010BBA19AB
:105F20004FF066084AD4102AA8BF10229FEDA67B26
:105F30008DED0E7B10200B90DDE90E01002A3FD184
:105F4000079A1B1842EB0101B1F1805F47D2CDE9FE
:105F50000C31069BB8F1660F03F0200240F0BB80C5
:105F6000002E47DC30238DF85C30002A6ED1002FE4
:105F700040F3B7812E238DF85D3086B17342BB426A
:105F8000A8BF3B469DF84A201393002BA7EB0307BD
:105F9000D4BF0023012363F345128DF84A200DF18D
:105FA0005E0340E0B8F1660F4FF0000BB7D090E70A
:105FB0004FF0000BB3E74FF0000B8AE70022B5E784
:105FC000400840EAC1704908CDE90E010EA8CDE9AC
:105FD000082355F066FA089A099B013AACE75B087A
:105FE00043EAC1730CA84908CDE90C31013655F0DC
:105FF00058FAAEE717AB0B9900290BDD0BA90CA8DB
:10600000CDE9063255F065FA069B079A03F8010BB5
:10601000013EF0D11396AAB9002F40F360812E21E2
:1060200003F8011B0026002F19DD0B9A002A16DD4C
:106030000BA90CA8069355F04CFA069B013F03F8F8
:10604000010BF0E72E2203F8012BEBE72E238DF84E
:106050005D30002EA3D0002F90DC0DF15E03BBF16C
:10606000000F4CD114971F4608F0DF03452B21D1B8
:10607000002EBABF76422D232B23632EC8BF642285
:106080007B70C2BFB6FBF2F303F1300102FB136673
:106090004FF00A0287F80080CABFB9700237033791
:1060A000B6FBF2F303F1300102FB136330333970B6
:1060B0007B700237139B002B2BDC149B002BD4BF6F
:1060C000002301239DF84A2063F3861200238DF8F4
:1060D0004A203B7097E60BA90CA8069255F0F9F9F7
:1060E000069A8DF85C00302818BF06F1FF3612B909
:1060F000002F40F3F6802E238DF85D304FE71F46CA
:10610000013B17F8012C302AF9D02E2A08BF1F4670
:10611000AAE70123D6E72E4F81467E1F0520A8E57A
:106120001A0748BF0130ACE5104609920399D047E1
:106130000028099A05DA1FB0BDE8F08F2022DDF8AB
:1061400010B0594600290BF1FF3BEDDC049BCDF864
:1061500010B02B445D1AB9F1000F05D003994846E1
:10616000D0470028E7DB0135089B002B7CD09DF948
:106170004930002B2EDBB3469BF80000A0F1300322
:10618000092BD9460BF1010B45D99DF84A30AE1BBE
:1061900099064E4407D44246002A08F1FF383FDCF6
:1061A000079B33449E1A99F800002E280AD10399C0
:1061B000D0470028BFDBB8F1000F06F1010635DC3F
:1061C00009F101094D463CE0000000000000000814
:1061D000C5BC0600B14699F800007028C84609F110
:1061E000010913D1AE1B149D46443544AB1B002B53
:1061F00032DC03993B464246504655F0C9F9002827
:1062000099DB3044049E0546064463E00399D04779
:106210000028E0DA8FE70399D0470028ACDA8AE754
:1062200003993020D0470028B5DA84E7039930205D
:10623000D04708F1FF38BCE70399D0470028FFF6A4
:106240007AAF2878A0F13003092BA84605F10105A3
:10625000F2D9A6EB0906C6E703993020D0470028FB
:10626000FFF669AF0136C1E79DF84A30DA0601D47E
:106270001B0706D503993020D0470028FFF65BAFF7
:106280000135069B3BB103999DF84B00D047002890
:10629000FFF651AF0135A84406E003993020D047FE
:1062A0000028FFF648AF0135A8EB0503002BF4DC0E
:1062B00003993B463246504655F06AF90028FFF6EE
:1062C0003AAF28449EE703992020D0470028FFF6E4
:1062D00032AF0135731B002BF5DCFFF790B9164682
:1062E000BDE60DF15D03BAE62DE9F047064688B03C
:1062F000884617465CF000F84FF47A73A0FB03451C
:1063000003FB0155E40BB8F1010F44EA45444FEAA1
:10631000D53507D1284922462B46304655F003FD96
:10632000002010E07968254856F0E6FC70B17968E5
:10633000234856F0E1FC48B130467A68214955F0CF
:106340000EFD6FF0040008B0BDE8F0872046294636
:1063500017A3D3E90023FEF72BFD05460C46104694
:106360001946194A0023FEF723FD80460F461046C2
:1063700019464EF660220023FEF71AFD8246894632
:10638000104619464FF47A720023FEF711FDCDE94D
:1063900002A9CDE90623CDE90401CDE900870B4927
:1063A0002A462346304655F0BEFCB9E7AFF30080DD
:1063B000005C26050000000028C1060039C1060067
:1063C0003CC1060045C1060080EE36005DC10600F6
:1063D0002DE9FF4715461A7C04697D2A0E46804642
:1063E000D9681F4609D9B648452155F0ECF96FF038
:1063F0007905284604B0BDE8F087931C84F8D036B0
:1064000004F2D16056F0BFFC04F5D769484619F094
:10641000BBF9022E32D00AD9F31E012B49D9A94863
:106420003246452155F0CFF96FF08505E1E70023AD
:10643000ADF80D3095F84A30C3F34002C3F3800342
:106440008DF8093001238DF80B309F4B8DF8082013
:1064500093F87C378DF80C3006F0010602A904F59C
:10646000DA608DF80A6012F01BFD002872D197489F
:10647000452155F0A8F96FF00405BAE70023ADF8FF
:106480000C3095F84A30C3F34002C3F380038DF813
:10649000093001238DF80A308B4B8DF8082093F8D2
:1064A0007C378DF80B3002A904F5DA6012F02AFD72
:1064B000DBE755B98649874840F25B2255F088F8FA
:1064C000834840F25B2155F07AF80023CDF80B3079
:1064D00095F84A30C3F34002C3F380038DF80930C6
:1064E000331F5E425E418DF808208DF80A605AF035
:1064F0002FFF01238DF80C30734B8DF80B00D5E97D
:10650000086293F87C378DF80D30734BB3424FF02F
:106510000203934104F5DA6A17D3704BA6FB0361BB
:1065200003FB0211AB6AF01841F100014FF47A72DB
:106530000023FEF73DFC61F01DFE0B4602A902465A
:10654000009150465AF028FF8FE74FF0FF306FF070
:106550000041EBE75C4BD3F874371BB13A4600219E
:10656000404698474FF0FF324FF0FF33484619F04E
:10657000ABF894F87A2795F84A3062F3410385F82E
:106580004A3094F87B27DBB262F3820385F84A3005
:1065900094F85037052B3FF66EAF01A252F823F066
:1065A000BF650000B9650000AD660000B36600007D
:1065B00077640000AD6600006FF00F0519E7D4F8AE
:1065C0005C57002D3FF415AFD4F86037D4F864273A
:1065D000134304F5EC670DD14148572155F0F3F80A
:1065E0006FF02205D4F85C075AF002FF0023C4F8CC
:1065F0005C37FEE62D78206800220023CDE90023D9
:1066000000231A46294606F067FF064630B935488A
:10661000452155F0D8F86FF00B05E3E7D4F85C1787
:106620002A46013156F089FF002809DA2E48452113
:1066300055F0C9F86FF00B05304656F0C2FED1E7B1
:1066400094F8683786F8483094F96937AE339BB2CE
:10665000FE2B28BFFE2386F84930D4F860077A68FD
:106660004FF47A73A0FB030103FB0211002907DA40
:106670001E491848EB2254F0ABFF1C48EB2122E7DF
:106680000DA3D3E90023FEF793FBC6E90801B2622C
:10669000304656F0CFFE2068314611F07DFB18B130
:1066A0001348492155F08FF80025C5E76FF0220502
:1066B0009FE66FF068059CE600CA9A3B0000000068
:1066C00005E0060058E006008010002076E0060095
:1066D00020E006003BBA0600037DC12500CA9A3BB4
:1066E0008DE00600A9E00600C8E00600EAE006002A
:1066F0001BE10600000000002DE9F0472DED028BA4
:1067000046A7D7E900679FED408BDFF818A182B05C
:1067100080464FF0FF334FF0FF3208F59F6018F0CE
:1067200041FF4368044643B939493A48A92254F025
:106730004FFFA921364854F042FF93F80090B9F179
:10674000800F06D932493348B62254F041FFB621B2
:10675000F0E700231A4649468DED008BD8F800007B
:1067600006F0BAFE61684A460131054656F0E5FE7C
:106770008146002836D1237C85F8483094F91130C1
:10678000AE339BB2FE2B28BFFE2385F84930A27C96
:1067900095F84A3062F3000385F84A30A3684FF455
:1067A0007A72A3FB0201E36802FB0311002907DAF6
:1067B00019491848EB2254F00BFF1748EB21BAE7B0
:1067C00032463B46FEF7F4FAC5E90801AA62D8F85A
:1067D0000000294606F00AFB00280CDA4521504645
:1067E00054F0F1FF0023606863605AF001FE284610
:1067F00056F0E7FD8DE76068C4F804905AF0F8FDA4
:1068000087E700BFAFF30080FFFFFFFFFFFFFFFF41
:1068100020E006003BBA0600EAE0060000CA9A3B08
:10682000000000006FE106002DE9F04F364ED6F86B
:1068300004339A0787B00BD5D6F8043143B1334AF5
:106840000023C6F80431D6F804311368013313600D
:106850002F4DDFF8C4A00024A9464FF48038D6F8A5
:10686000042308FA04F7174228D0BFF35B8F0122F4
:10687000A240284BD24353E8001F01EA020043E83C
:10688000000CBCF1000FF6D1BFF35B8F21FA04F2CC
:10689000D30702D45AF8242082B1204657F0CFF90A
:1068A0000AF05AFCEFF3108B72B609EB041CDCE91A
:1068B00002239042994109D28BF310880134042CB1
:1068C00005F11005CBD107B0BDE8F08FCDE9042369
:1068D0009FED0B7BD5E900130020286003938CED1E
:1068E000027B2046C6F8487357F0A9F98BF310884D
:1068F0000029E3D0039B0093DDE904238847DDE70B
:10690000FFFFFFFFFFFFFFFF0010014080CB0020D3
:10691000B8A6002074CB0020401101400000000008
:106920002DE9F041137886B00E46023B511C9BB214
:106930004FF0000803910591044600210020CDE9A5
:106940000088CDF80880ADF81030ADF8123006F0B0
:106950005FFD0546002840D03F4F022CC7F800805D
:106960002ED0032C54D0012C35D1DFF8F8803B4BCE
:106970003B4E03225A70D8F8003030685B68984765
:10698000D8F8003010F0100FD3F8188030686B463C
:106990002A460CBF21460221C0470446284656F02D
:1069A00010FD2E4B022214F1230F5A703CD0002C04
:1069B00047D1386830F0E8F8012010F095FE3EE04D
:1069C000DFF8A080264CD8F8003020685B68984734
:1069D000C30506D4284656F0F4FC002006B0BDE8F6
:1069E000F0814FF47A70A6FB000119A3D3E90023CC
:1069F000FEF72EFA194BAA62C5E908010321597066
:106A0000D8F8003020689E692A466B46B047C4E734
:106A1000124B5C70134B02461B6811489C6900685E
:106A20006B464146A047B8E7042030F0E1F800206B
:106A300010F05AFE40F2F22000211AF0EDF9012088
:106A4000CCE7012030F0D4F80020B6E7AFF30080A7
:106A500000CA9A3B00000000D0CB00203F05002078
:106A6000A8CB0020A4CB0020014810F0ADBD00BF92
:106A70003D6D000010B5022104462FF01FF8044BB5
:106A800004495B8903802046BDE810405EF0F2BCFB
:106A900098FC0020856C000010B504462EF0AEFF77
:106AA00042788AB90A490B4801234B700A4B5A7C39
:106AB000134413F8012C0A73492154F084FE204634
:106AC000BDE810402EF046BF04484521F5E700BF61
:106AD00098FC0020FEB7060040FD00201DB806000F
